{
  "_format": "hh-sol-artifact-1",
  "contractName": "Web3Mint",
  "sourceName": "contracts/Web3Mint.sol",
  "abi": [
    {
      "inputs": [],
      "stateMutability": "nonpayable",
      "type": "constructor"
    },
    {
      "anonymous": false,
      "inputs": [
        {
          "indexed": true,
          "internalType": "address",
          "name": "owner",
          "type": "address"
        },
        {
          "indexed": true,
          "internalType": "address",
          "name": "approved",
          "type": "address"
        },
        {
          "indexed": true,
          "internalType": "uint256",
          "name": "tokenId",
          "type": "uint256"
        }
      ],
      "name": "Approval",
      "type": "event"
    },
    {
      "anonymous": false,
      "inputs": [
        {
          "indexed": true,
          "internalType": "address",
          "name": "owner",
          "type": "address"
        },
        {
          "indexed": true,
          "internalType": "address",
          "name": "operator",
          "type": "address"
        },
        {
          "indexed": false,
          "internalType": "bool",
          "name": "approved",
          "type": "bool"
        }
      ],
      "name": "ApprovalForAll",
      "type": "event"
    },
    {
      "anonymous": false,
      "inputs": [
        {
          "indexed": true,
          "internalType": "address",
          "name": "from",
          "type": "address"
        },
        {
          "indexed": true,
          "internalType": "address",
          "name": "to",
          "type": "address"
        },
        {
          "indexed": true,
          "internalType": "uint256",
          "name": "tokenId",
          "type": "uint256"
        }
      ],
      "name": "Transfer",
      "type": "event"
    },
    {
      "inputs": [],
      "name": "MaxMintCount",
      "outputs": [
        {
          "internalType": "uint256",
          "name": "",
          "type": "uint256"
        }
      ],
      "stateMutability": "view",
      "type": "function"
    },
    {
      "inputs": [],
      "name": "TotalMintCount",
      "outputs": [
        {
          "internalType": "uint256",
          "name": "",
          "type": "uint256"
        }
      ],
      "stateMutability": "view",
      "type": "function"
    },
    {
      "inputs": [
        {
          "internalType": "address",
          "name": "to",
          "type": "address"
        },
        {
          "internalType": "uint256",
          "name": "tokenId",
          "type": "uint256"
        }
      ],
      "name": "approve",
      "outputs": [],
      "stateMutability": "nonpayable",
      "type": "function"
    },
    {
      "inputs": [
        {
          "internalType": "address",
          "name": "owner",
          "type": "address"
        }
      ],
      "name": "balanceOf",
      "outputs": [
        {
          "internalType": "uint256",
          "name": "",
          "type": "uint256"
        }
      ],
      "stateMutability": "view",
      "type": "function"
    },
    {
      "inputs": [
        {
          "internalType": "uint256",
          "name": "tokenId",
          "type": "uint256"
        }
      ],
      "name": "getApproved",
      "outputs": [
        {
          "internalType": "address",
          "name": "",
          "type": "address"
        }
      ],
      "stateMutability": "view",
      "type": "function"
    },
    {
      "inputs": [
        {
          "internalType": "address",
          "name": "owner",
          "type": "address"
        },
        {
          "internalType": "address",
          "name": "operator",
          "type": "address"
        }
      ],
      "name": "isApprovedForAll",
      "outputs": [
        {
          "internalType": "bool",
          "name": "",
          "type": "bool"
        }
      ],
      "stateMutability": "view",
      "type": "function"
    },
    {
      "inputs": [
        {
          "internalType": "string",
          "name": "name",
          "type": "string"
        },
        {
          "internalType": "string",
          "name": "imageURI",
          "type": "string"
        }
      ],
      "name": "mintIpfsNFT",
      "outputs": [],
      "stateMutability": "nonpayable",
      "type": "function"
    },
    {
      "inputs": [],
      "name": "name",
      "outputs": [
        {
          "internalType": "string",
          "name": "",
          "type": "string"
        }
      ],
      "stateMutability": "view",
      "type": "function"
    },
    {
      "inputs": [
        {
          "internalType": "uint256",
          "name": "tokenId",
          "type": "uint256"
        }
      ],
      "name": "ownerOf",
      "outputs": [
        {
          "internalType": "address",
          "name": "",
          "type": "address"
        }
      ],
      "stateMutability": "view",
      "type": "function"
    },
    {
      "inputs": [
        {
          "internalType": "address",
          "name": "from",
          "type": "address"
        },
        {
          "internalType": "address",
          "name": "to",
          "type": "address"
        },
        {
          "internalType": "uint256",
          "name": "tokenId",
          "type": "uint256"
        }
      ],
      "name": "safeTransferFrom",
      "outputs": [],
      "stateMutability": "nonpayable",
      "type": "function"
    },
    {
      "inputs": [
        {
          "internalType": "address",
          "name": "from",
          "type": "address"
        },
        {
          "internalType": "address",
          "name": "to",
          "type": "address"
        },
        {
          "internalType": "uint256",
          "name": "tokenId",
          "type": "uint256"
        },
        {
          "internalType": "bytes",
          "name": "data",
          "type": "bytes"
        }
      ],
      "name": "safeTransferFrom",
      "outputs": [],
      "stateMutability": "nonpayable",
      "type": "function"
    },
    {
      "inputs": [
        {
          "internalType": "address",
          "name": "operator",
          "type": "address"
        },
        {
          "internalType": "bool",
          "name": "approved",
          "type": "bool"
        }
      ],
      "name": "setApprovalForAll",
      "outputs": [],
      "stateMutability": "nonpayable",
      "type": "function"
    },
    {
      "inputs": [
        {
          "internalType": "bytes4",
          "name": "interfaceId",
          "type": "bytes4"
        }
      ],
      "name": "supportsInterface",
      "outputs": [
        {
          "internalType": "bool",
          "name": "",
          "type": "bool"
        }
      ],
      "stateMutability": "view",
      "type": "function"
    },
    {
      "inputs": [],
      "name": "symbol",
      "outputs": [
        {
          "internalType": "string",
          "name": "",
          "type": "string"
        }
      ],
      "stateMutability": "view",
      "type": "function"
    },
    {
      "inputs": [
        {
          "internalType": "uint256",
          "name": "_tokenId",
          "type": "uint256"
        }
      ],
      "name": "tokenURI",
      "outputs": [
        {
          "internalType": "string",
          "name": "",
          "type": "string"
        }
      ],
      "stateMutability": "view",
      "type": "function"
    },
    {
      "inputs": [
        {
          "internalType": "address",
          "name": "from",
          "type": "address"
        },
        {
          "internalType": "address",
          "name": "to",
          "type": "address"
        },
        {
          "internalType": "uint256",
          "name": "tokenId",
          "type": "uint256"
        }
      ],
      "name": "transferFrom",
      "outputs": [],
      "stateMutability": "nonpayable",
      "type": "function"
    }
  ],
  "bytecode": "0x6080604052601e6006553480156200001657600080fd5b506040518060400160405280600381526020017f4e465400000000000000000000000000000000000000000000000000000000008152506040518060400160405280600381526020017f6e66740000000000000000000000000000000000000000000000000000000000815250816000908162000094919062000440565b508060019081620000a6919062000440565b505050620000f46040518060400160405280601881526020017f54686973206973206d79204e465420636f6e74726163742e0000000000000000815250620000fa60201b62000b711760201c565b620005da565b6200019a81604051602401620001119190620005b6565b6040516020818303038152906040527f41304fac000000000000000000000000000000000000000000000000000000007bffffffffffffffffffffffffffffffffffffffffffffffffffffffff19166020820180517bffffffffffffffffffffffffffffffffffffffffffffffffffffffff83818316178352505050506200019d60201b60201c565b50565b60008151905060006a636f6e736f6c652e6c6f679050602083016000808483855afa5050505050565b600081519050919050565b7f4e487b7100000000000000000000000000000000000000000000000000000000600052604160045260246000fd5b7f4e487b7100000000000000000000000000000000000000000000000000000000600052602260045260246000fd5b600060028204905060018216806200024857607f821691505b6020821081036200025e576200025d62000200565b5b50919050565b60008190508160005260206000209050919050565b60006020601f8301049050919050565b600082821b905092915050565b600060088302620002c87fffffffffffffffffffffffffffffffffffffffffffffffffffffffffffffffff8262000289565b620002d4868362000289565b95508019841693508086168417925050509392505050565b6000819050919050565b6000819050919050565b6000620003216200031b6200031584620002ec565b620002f6565b620002ec565b9050919050565b6000819050919050565b6200033d8362000300565b620003556200034c8262000328565b84845462000296565b825550505050565b600090565b6200036c6200035d565b6200037981848462000332565b505050565b5b81811015620003a1576200039560008262000362565b6001810190506200037f565b5050565b601f821115620003f057620003ba8162000264565b620003c58462000279565b81016020851015620003d5578190505b620003ed620003e48562000279565b8301826200037e565b50505b505050565b600082821c905092915050565b60006200041560001984600802620003f5565b1980831691505092915050565b600062000430838362000402565b9150826002028217905092915050565b6200044b82620001c6565b67ffffffffffffffff811115620004675762000466620001d1565b5b6200047382546200022f565b62000480828285620003a5565b600060209050601f831160018114620004b85760008415620004a3578287015190505b620004af858262000422565b8655506200051f565b601f198416620004c88662000264565b60005b82811015620004f257848901518255600182019150602085019450602081019050620004cb565b868310156200051257848901516200050e601f89168262000402565b8355505b6001600288020188555050505b505050505050565b600082825260208201905092915050565b60005b83811015620005585780820151818401526020810190506200053b565b60008484015250505050565b6000601f19601f8301169050919050565b60006200058282620001c6565b6200058e818562000527565b9350620005a081856020860162000538565b620005ab8162000564565b840191505092915050565b60006020820190508181036000830152620005d2818462000575565b905092915050565b6130e080620005ea6000396000f3fe608060405234801561001057600080fd5b50600436106101005760003560e01c806370a0823111610097578063b88d4fde11610066578063b88d4fde146102ad578063c87b56dd146102c9578063e985e9c5146102f9578063eb00195d1461032957610100565b806370a082311461022557806395d89b4114610255578063a22cb46514610273578063ab553a621461028f57610100565b8063095ea7b3116100d3578063095ea7b3146101a157806323b872dd146101bd57806342842e0e146101d95780636352211e146101f557610100565b806301ffc9a7146101055780630375d3f01461013557806306fdde0314610153578063081812fc14610171575b600080fd5b61011f600480360381019061011a9190611b04565b610345565b60405161012c9190611b4c565b60405180910390f35b61013d610427565b60405161014a9190611b80565b60405180910390f35b61015b61043d565b6040516101689190611c2b565b60405180910390f35b61018b60048036038101906101869190611c79565b6104cf565b6040516101989190611ce7565b60405180910390f35b6101bb60048036038101906101b69190611d2e565b610515565b005b6101d760048036038101906101d29190611d6e565b61062c565b005b6101f360048036038101906101ee9190611d6e565b61068c565b005b61020f600480360381019061020a9190611c79565b6106ac565b60405161021c9190611ce7565b60405180910390f35b61023f600480360381019061023a9190611dc1565b61075d565b60405161024c9190611b80565b60405180910390f35b61025d610814565b60405161026a9190611c2b565b60405180910390f35b61028d60048036038101906102889190611e1a565b6108a6565b005b6102976108bc565b6040516102a49190611b80565b60405180910390f35b6102c760048036038101906102c29190611f8f565b6108c6565b005b6102e360048036038101906102de9190611c79565b610928565b6040516102f09190611c2b565b60405180910390f35b610313600480360381019061030e9190612012565b6109d8565b6040516103209190611b4c565b60405180910390f35b610343600480360381019061033e91906120f3565b610a6c565b005b60007f80ac58cd000000000000000000000000000000000000000000000000000000007bffffffffffffffffffffffffffffffffffffffffffffffffffffffff1916827bffffffffffffffffffffffffffffffffffffffffffffffffffffffff1916148061041057507f5b5e139f000000000000000000000000000000000000000000000000000000007bffffffffffffffffffffffffffffffffffffffffffffffffffffffff1916827bffffffffffffffffffffffffffffffffffffffffffffffffffffffff1916145b80610420575061041f82610c0a565b5b9050919050565b6000806104346008610c74565b90508091505090565b60606000805461044c9061219a565b80601f01602080910402602001604051908101604052809291908181526020018280546104789061219a565b80156104c55780601f1061049a576101008083540402835291602001916104c5565b820191906000526020600020905b8154815290600101906020018083116104a857829003601f168201915b5050505050905090565b60006104da82610c82565b6004600083815260200190815260200160002060009054906101000a900473ffffffffffffffffffffffffffffffffffffffff169050919050565b6000610520826106ac565b90508073ffffffffffffffffffffffffffffffffffffffff168373ffffffffffffffffffffffffffffffffffffffff1603610590576040517f08c379a00000000000000000000000000000000000000000000000000000000081526004016105879061223d565b60405180910390fd5b8073ffffffffffffffffffffffffffffffffffffffff166105af610ccd565b73ffffffffffffffffffffffffffffffffffffffff1614806105de57506105dd816105d8610ccd565b6109d8565b5b61061d576040517f08c379a0000000000000000000000000000000000000000000000000000000008152600401610614906122cf565b60405180910390fd5b6106278383610cd5565b505050565b61063d610637610ccd565b82610d8e565b61067c576040517f08c379a000000000000000000000000000000000000000000000000000000000815260040161067390612361565b60405180910390fd5b610687838383610e23565b505050565b6106a7838383604051806020016040528060008152506108c6565b505050565b6000806002600084815260200190815260200160002060009054906101000a900473ffffffffffffffffffffffffffffffffffffffff169050600073ffffffffffffffffffffffffffffffffffffffff168173ffffffffffffffffffffffffffffffffffffffff1603610754576040517f08c379a000000000000000000000000000000000000000000000000000000000815260040161074b906123cd565b60405180910390fd5b80915050919050565b60008073ffffffffffffffffffffffffffffffffffffffff168273ffffffffffffffffffffffffffffffffffffffff16036107cd576040517f08c379a00000000000000000000000000000000000000000000000000000000081526004016107c49061245f565b60405180910390fd5b600360008373ffffffffffffffffffffffffffffffffffffffff1673ffffffffffffffffffffffffffffffffffffffff168152602001908152602001600020549050919050565b6060600180546108239061219a565b80601f016020809104026020016040519081016040528092919081815260200182805461084f9061219a565b801561089c5780601f106108715761010080835404028352916020019161089c565b820191906000526020600020905b81548152906001019060200180831161087f57829003601f168201915b5050505050905090565b6108b86108b1610ccd565b8383611089565b5050565b6000600654905090565b6108d76108d1610ccd565b83610d8e565b610916576040517f08c379a000000000000000000000000000000000000000000000000000000000815260040161090d90612361565b60405180910390fd5b610922848484846111f5565b50505050565b606060006109a8600784815481106109435761094261247f565b5b906000526020600020906002020160000161095d85611251565b600786815481106109715761097061247f565b5b9060005260206000209060020201600101604051602001610994939291906126d8565b6040516020818303038152906040526113b1565b90506000816040516020016109bd9190612781565b60405160208183030381529060405290508092505050919050565b6000600560008473ffffffffffffffffffffffffffffffffffffffff1673ffffffffffffffffffffffffffffffffffffffff16815260200190815260200160002060008373ffffffffffffffffffffffffffffffffffffffff1673ffffffffffffffffffffffffffffffffffffffff16815260200190815260200160002060009054906101000a900460ff16905092915050565b600654610a796008610c74565b10610ab9576040517f08c379a0000000000000000000000000000000000000000000000000000000008152600401610ab0906127ef565b60405180910390fd5b6000610ac56008610c74565b9050610ad13382611548565b600760405180604001604052808581526020018481525090806001815401808255809150506001900390600052602060002090600202016000909190919091506000820151816000019081610b2691906129a6565b506020820151816001019081610b3c91906129a6565b505050610b62604051806060016040528060258152602001613046602591398233611566565b610b6c6008611605565b505050565b610c0781604051602401610b859190611c2b565b6040516020818303038152906040527f41304fac000000000000000000000000000000000000000000000000000000007bffffffffffffffffffffffffffffffffffffffffffffffffffffffff19166020820180517bffffffffffffffffffffffffffffffffffffffffffffffffffffffff838183161783525050505061161b565b50565b60007f01ffc9a7000000000000000000000000000000000000000000000000000000007bffffffffffffffffffffffffffffffffffffffffffffffffffffffff1916827bffffffffffffffffffffffffffffffffffffffffffffffffffffffff1916149050919050565b600081600001549050919050565b610c8b81611644565b610cca576040517f08c379a0000000000000000000000000000000000000000000000000000000008152600401610cc1906123cd565b60405180910390fd5b50565b600033905090565b816004600083815260200190815260200160002060006101000a81548173ffffffffffffffffffffffffffffffffffffffff021916908373ffffffffffffffffffffffffffffffffffffffff160217905550808273ffffffffffffffffffffffffffffffffffffffff16610d48836106ac565b73ffffffffffffffffffffffffffffffffffffffff167f8c5be1e5ebec7d5bd14f71427d1e84f3dd0314c0f7b2291e5b200ac8c7c3b92560405160405180910390a45050565b600080610d9a836106ac565b90508073ffffffffffffffffffffffffffffffffffffffff168473ffffffffffffffffffffffffffffffffffffffff161480610ddc5750610ddb81856109d8565b5b80610e1a57508373ffffffffffffffffffffffffffffffffffffffff16610e02846104cf565b73ffffffffffffffffffffffffffffffffffffffff16145b91505092915050565b8273ffffffffffffffffffffffffffffffffffffffff16610e43826106ac565b73ffffffffffffffffffffffffffffffffffffffff1614610e99576040517f08c379a0000000000000000000000000000000000000000000000000000000008152600401610e9090612aea565b60405180910390fd5b600073ffffffffffffffffffffffffffffffffffffffff168273ffffffffffffffffffffffffffffffffffffffff1603610f08576040517f08c379a0000000000000000000000000000000000000000000000000000000008152600401610eff90612b7c565b60405180910390fd5b610f138383836116b0565b610f1e600082610cd5565b6001600360008573ffffffffffffffffffffffffffffffffffffffff1673ffffffffffffffffffffffffffffffffffffffff1681526020019081526020016000206000828254610f6e9190612bcb565b925050819055506001600360008473ffffffffffffffffffffffffffffffffffffffff1673ffffffffffffffffffffffffffffffffffffffff1681526020019081526020016000206000828254610fc59190612bff565b92505081905550816002600083815260200190815260200160002060006101000a81548173ffffffffffffffffffffffffffffffffffffffff021916908373ffffffffffffffffffffffffffffffffffffffff160217905550808273ffffffffffffffffffffffffffffffffffffffff168473ffffffffffffffffffffffffffffffffffffffff167fddf252ad1be2c89b69c2b068fc378daa952ba7f163c4a11628f55a4df523b3ef60405160405180910390a46110848383836116b5565b505050565b8173ffffffffffffffffffffffffffffffffffffffff168373ffffffffffffffffffffffffffffffffffffffff16036110f7576040517f08c379a00000000000000000000000000000000000000000000000000000000081526004016110ee90612c7f565b60405180910390fd5b80600560008573ffffffffffffffffffffffffffffffffffffffff1673ffffffffffffffffffffffffffffffffffffffff16815260200190815260200160002060008473ffffffffffffffffffffffffffffffffffffffff1673ffffffffffffffffffffffffffffffffffffffff16815260200190815260200160002060006101000a81548160ff0219169083151502179055508173ffffffffffffffffffffffffffffffffffffffff168373ffffffffffffffffffffffffffffffffffffffff167f17307eab39ab6107e8899845ad3d59bd9653f200f220920489ca2b5937696c31836040516111e89190611b4c565b60405180910390a3505050565b611200848484610e23565b61120c848484846116ba565b61124b576040517f08c379a000000000000000000000000000000000000000000000000000000000815260040161124290612d11565b60405180910390fd5b50505050565b606060008203611298576040518060400160405280600181526020017f300000000000000000000000000000000000000000000000000000000000000081525090506113ac565b600082905060005b600082146112ca5780806112b390612d31565b915050600a826112c39190612da8565b91506112a0565b60008167ffffffffffffffff8111156112e6576112e5611e64565b5b6040519080825280601f01601f1916602001820160405280156113185781602001600182028036833780820191505090505b5090505b600085146113a5576001826113319190612bcb565b9150600a856113409190612dd9565b603061134c9190612bff565b60f81b8183815181106113625761136161247f565b5b60200101907effffffffffffffffffffffffffffffffffffffffffffffffffffffffffffff1916908160001a905350600a8561139e9190612da8565b945061131c565b8093505050505b919050565b6060600082519050600081036113d95760405180602001604052806000815250915050611543565b600060036002836113ea9190612bff565b6113f49190612da8565b60046114009190612e0a565b905060006020826114119190612bff565b67ffffffffffffffff81111561142a57611429611e64565b5b6040519080825280601f01601f19166020018201604052801561145c5781602001600182028036833780820191505090505b509050600060405180606001604052806040815260200161306b604091399050600181016020830160005b868110156115005760038101905062ffffff818a015116603f8160121c168401518060081b905060ff603f83600c1c1686015116810190508060081b905060ff603f8360061c1686015116810190508060081b905060ff603f831686015116810190508060e01b90508084526004840193505050611487565b50600386066001811461151a576002811461152a57611535565b613d3d60f01b6002830352611535565b603d60f81b60018303525b508484525050819450505050505b919050565b611562828260405180602001604052806000815250611841565b5050565b61160083838360405160240161157e93929190612e4c565b6040516020818303038152906040527f1c7ec448000000000000000000000000000000000000000000000000000000007bffffffffffffffffffffffffffffffffffffffffffffffffffffffff19166020820180517bffffffffffffffffffffffffffffffffffffffffffffffffffffffff838183161783525050505061161b565b505050565b6001816000016000828254019250508190555050565b60008151905060006a636f6e736f6c652e6c6f679050602083016000808483855afa5050505050565b60008073ffffffffffffffffffffffffffffffffffffffff166002600084815260200190815260200160002060009054906101000a900473ffffffffffffffffffffffffffffffffffffffff1673ffffffffffffffffffffffffffffffffffffffff1614159050919050565b505050565b505050565b60006116db8473ffffffffffffffffffffffffffffffffffffffff1661189c565b15611834578373ffffffffffffffffffffffffffffffffffffffff1663150b7a02611704610ccd565b8786866040518563ffffffff1660e01b81526004016117269493929190612edf565b6020604051808303816000875af192505050801561176257506040513d601f19601f8201168201806040525081019061175f9190612f40565b60015b6117e4573d8060008114611792576040519150601f19603f3d011682016040523d82523d6000602084013e611797565b606091505b5060008151036117dc576040517f08c379a00000000000000000000000000000000000000000000000000000000081526004016117d390612d11565b60405180910390fd5b805181602001fd5b63150b7a0260e01b7bffffffffffffffffffffffffffffffffffffffffffffffffffffffff1916817bffffffffffffffffffffffffffffffffffffffffffffffffffffffff191614915050611839565b600190505b949350505050565b61184b83836118bf565b61185860008484846116ba565b611897576040517f08c379a000000000000000000000000000000000000000000000000000000000815260040161188e90612d11565b60405180910390fd5b505050565b6000808273ffffffffffffffffffffffffffffffffffffffff163b119050919050565b600073ffffffffffffffffffffffffffffffffffffffff168273ffffffffffffffffffffffffffffffffffffffff160361192e576040517f08c379a000000000000000000000000000000000000000000000000000000000815260040161192590612fb9565b60405180910390fd5b61193781611644565b15611977576040517f08c379a000000000000000000000000000000000000000000000000000000000815260040161196e90613025565b60405180910390fd5b611983600083836116b0565b6001600360008473ffffffffffffffffffffffffffffffffffffffff1673ffffffffffffffffffffffffffffffffffffffff16815260200190815260200160002060008282546119d39190612bff565b92505081905550816002600083815260200190815260200160002060006101000a81548173ffffffffffffffffffffffffffffffffffffffff021916908373ffffffffffffffffffffffffffffffffffffffff160217905550808273ffffffffffffffffffffffffffffffffffffffff16600073ffffffffffffffffffffffffffffffffffffffff167fddf252ad1be2c89b69c2b068fc378daa952ba7f163c4a11628f55a4df523b3ef60405160405180910390a4611a94600083836116b5565b5050565b6000604051905090565b600080fd5b600080fd5b60007fffffffff0000000000000000000000000000000000000000000000000000000082169050919050565b611ae181611aac565b8114611aec57600080fd5b50565b600081359050611afe81611ad8565b92915050565b600060208284031215611b1a57611b19611aa2565b5b6000611b2884828501611aef565b91505092915050565b60008115159050919050565b611b4681611b31565b82525050565b6000602082019050611b616000830184611b3d565b92915050565b6000819050919050565b611b7a81611b67565b82525050565b6000602082019050611b956000830184611b71565b92915050565b600081519050919050565b600082825260208201905092915050565b60005b83811015611bd5578082015181840152602081019050611bba565b60008484015250505050565b6000601f19601f8301169050919050565b6000611bfd82611b9b565b611c078185611ba6565b9350611c17818560208601611bb7565b611c2081611be1565b840191505092915050565b60006020820190508181036000830152611c458184611bf2565b905092915050565b611c5681611b67565b8114611c6157600080fd5b50565b600081359050611c7381611c4d565b92915050565b600060208284031215611c8f57611c8e611aa2565b5b6000611c9d84828501611c64565b91505092915050565b600073ffffffffffffffffffffffffffffffffffffffff82169050919050565b6000611cd182611ca6565b9050919050565b611ce181611cc6565b82525050565b6000602082019050611cfc6000830184611cd8565b92915050565b611d0b81611cc6565b8114611d1657600080fd5b50565b600081359050611d2881611d02565b92915050565b60008060408385031215611d4557611d44611aa2565b5b6000611d5385828601611d19565b9250506020611d6485828601611c64565b9150509250929050565b600080600060608486031215611d8757611d86611aa2565b5b6000611d9586828701611d19565b9350506020611da686828701611d19565b9250506040611db786828701611c64565b9150509250925092565b600060208284031215611dd757611dd6611aa2565b5b6000611de584828501611d19565b91505092915050565b611df781611b31565b8114611e0257600080fd5b50565b600081359050611e1481611dee565b92915050565b60008060408385031215611e3157611e30611aa2565b5b6000611e3f85828601611d19565b9250506020611e5085828601611e05565b9150509250929050565b600080fd5b600080fd5b7f4e487b7100000000000000000000000000000000000000000000000000000000600052604160045260246000fd5b611e9c82611be1565b810181811067ffffffffffffffff82111715611ebb57611eba611e64565b5b80604052505050565b6000611ece611a98565b9050611eda8282611e93565b919050565b600067ffffffffffffffff821115611efa57611ef9611e64565b5b611f0382611be1565b9050602081019050919050565b82818337600083830152505050565b6000611f32611f2d84611edf565b611ec4565b905082815260208101848484011115611f4e57611f4d611e5f565b5b611f59848285611f10565b509392505050565b600082601f830112611f7657611f75611e5a565b5b8135611f86848260208601611f1f565b91505092915050565b60008060008060808587031215611fa957611fa8611aa2565b5b6000611fb787828801611d19565b9450506020611fc887828801611d19565b9350506040611fd987828801611c64565b925050606085013567ffffffffffffffff811115611ffa57611ff9611aa7565b5b61200687828801611f61565b91505092959194509250565b6000806040838503121561202957612028611aa2565b5b600061203785828601611d19565b925050602061204885828601611d19565b9150509250929050565b600067ffffffffffffffff82111561206d5761206c611e64565b5b61207682611be1565b9050602081019050919050565b600061209661209184612052565b611ec4565b9050828152602081018484840111156120b2576120b1611e5f565b5b6120bd848285611f10565b509392505050565b600082601f8301126120da576120d9611e5a565b5b81356120ea848260208601612083565b91505092915050565b6000806040838503121561210a57612109611aa2565b5b600083013567ffffffffffffffff81111561212857612127611aa7565b5b612134858286016120c5565b925050602083013567ffffffffffffffff81111561215557612154611aa7565b5b612161858286016120c5565b9150509250929050565b7f4e487b7100000000000000000000000000000000000000000000000000000000600052602260045260246000fd5b600060028204905060018216806121b257607f821691505b6020821081036121c5576121c461216b565b5b50919050565b7f4552433732313a20617070726f76616c20746f2063757272656e74206f776e6560008201527f7200000000000000000000000000000000000000000000000000000000000000602082015250565b6000612227602183611ba6565b9150612232826121cb565b604082019050919050565b600060208201905081810360008301526122568161221a565b9050919050565b7f4552433732313a20617070726f76652063616c6c6572206973206e6f7420746f60008201527f6b656e206f776e6572206e6f7220617070726f76656420666f7220616c6c0000602082015250565b60006122b9603e83611ba6565b91506122c48261225d565b604082019050919050565b600060208201905081810360008301526122e8816122ac565b9050919050565b7f4552433732313a2063616c6c6572206973206e6f7420746f6b656e206f776e6560008201527f72206e6f7220617070726f766564000000000000000000000000000000000000602082015250565b600061234b602e83611ba6565b9150612356826122ef565b604082019050919050565b6000602082019050818103600083015261237a8161233e565b9050919050565b7f4552433732313a20696e76616c696420746f6b656e2049440000000000000000600082015250565b60006123b7601883611ba6565b91506123c282612381565b602082019050919050565b600060208201905081810360008301526123e6816123aa565b9050919050565b7f4552433732313a2061646472657373207a65726f206973206e6f74206120766160008201527f6c6964206f776e65720000000000000000000000000000000000000000000000602082015250565b6000612449602983611ba6565b9150612454826123ed565b604082019050919050565b600060208201905081810360008301526124788161243c565b9050919050565b7f4e487b7100000000000000000000000000000000000000000000000000000000600052603260045260246000fd5b600081905092915050565b7f7b226e616d65223a202200000000000000000000000000000000000000000000600082015250565b60006124ef600a836124ae565b91506124fa826124b9565b600a82019050919050565b60008190508160005260206000209050919050565b600081546125278161219a565b61253181866124ae565b9450600182166000811461254c576001811461256157612594565b60ff1983168652811515820286019350612594565b61256a85612505565b60005b8381101561258c5781548189015260018201915060208101905061256d565b838801955050505b50505092915050565b7f202d2d204e465420233a20000000000000000000000000000000000000000000600082015250565b60006125d3600b836124ae565b91506125de8261259d565b600b82019050919050565b60006125f482611b9b565b6125fe81856124ae565b935061260e818560208601611bb7565b80840191505092915050565b7f222c20226465736372697074696f6e223a2022416e2065706963204e4654222c60008201527f2022696d616765223a2022697066733a2f2f0000000000000000000000000000602082015250565b60006126766032836124ae565b91506126818261261a565b603282019050919050565b7f227d000000000000000000000000000000000000000000000000000000000000600082015250565b60006126c26002836124ae565b91506126cd8261268c565b600282019050919050565b60006126e3826124e2565b91506126ef828661251a565b91506126fa826125c6565b915061270682856125e9565b915061271182612669565b915061271d828461251a565b9150612728826126b5565b9150819050949350505050565b7f646174613a6170706c69636174696f6e2f6a736f6e3b6261736536342c000000600082015250565b600061276b601d836124ae565b915061277682612735565b601d82019050919050565b600061278c8261275e565b915061279882846125e9565b915081905092915050565b7f4e6f206d6f7265204e46542063616e206265206973737565642e000000000000600082015250565b60006127d9601a83611ba6565b91506127e4826127a3565b602082019050919050565b60006020820190508181036000830152612808816127cc565b9050919050565b60006020601f8301049050919050565b600082821b905092915050565b60006008830261285c7fffffffffffffffffffffffffffffffffffffffffffffffffffffffffffffffff8261281f565b612866868361281f565b95508019841693508086168417925050509392505050565b6000819050919050565b60006128a361289e61289984611b67565b61287e565b611b67565b9050919050565b6000819050919050565b6128bd83612888565b6128d16128c9826128aa565b84845461282c565b825550505050565b600090565b6128e66128d9565b6128f18184846128b4565b505050565b5b818110156129155761290a6000826128de565b6001810190506128f7565b5050565b601f82111561295a5761292b81612505565b6129348461280f565b81016020851015612943578190505b61295761294f8561280f565b8301826128f6565b50505b505050565b600082821c905092915050565b600061297d6000198460080261295f565b1980831691505092915050565b6000612996838361296c565b9150826002028217905092915050565b6129af82611b9b565b67ffffffffffffffff8111156129c8576129c7611e64565b5b6129d2825461219a565b6129dd828285612919565b600060209050601f831160018114612a1057600084156129fe578287015190505b612a08858261298a565b865550612a70565b601f198416612a1e86612505565b60005b82811015612a4657848901518255600182019150602085019450602081019050612a21565b86831015612a635784890151612a5f601f89168261296c565b8355505b6001600288020188555050505b505050505050565b7f4552433732313a207472616e736665722066726f6d20696e636f72726563742060008201527f6f776e6572000000000000000000000000000000000000000000000000000000602082015250565b6000612ad4602583611ba6565b9150612adf82612a78565b604082019050919050565b60006020820190508181036000830152612b0381612ac7565b9050919050565b7f4552433732313a207472616e7366657220746f20746865207a65726f2061646460008201527f7265737300000000000000000000000000000000000000000000000000000000602082015250565b6000612b66602483611ba6565b9150612b7182612b0a565b604082019050919050565b60006020820190508181036000830152612b9581612b59565b9050919050565b7f4e487b7100000000000000000000000000000000000000000000000000000000600052601160045260246000fd5b6000612bd682611b67565b9150612be183611b67565b9250828203905081811115612bf957612bf8612b9c565b5b92915050565b6000612c0a82611b67565b9150612c1583611b67565b9250828201905080821115612c2d57612c2c612b9c565b5b92915050565b7f4552433732313a20617070726f766520746f2063616c6c657200000000000000600082015250565b6000612c69601983611ba6565b9150612c7482612c33565b602082019050919050565b60006020820190508181036000830152612c9881612c5c565b9050919050565b7f4552433732313a207472616e7366657220746f206e6f6e20455243373231526560008201527f63656976657220696d706c656d656e7465720000000000000000000000000000602082015250565b6000612cfb603283611ba6565b9150612d0682612c9f565b604082019050919050565b60006020820190508181036000830152612d2a81612cee565b9050919050565b6000612d3c82611b67565b91507fffffffffffffffffffffffffffffffffffffffffffffffffffffffffffffffff8203612d6e57612d6d612b9c565b5b600182019050919050565b7f4e487b7100000000000000000000000000000000000000000000000000000000600052601260045260246000fd5b6000612db382611b67565b9150612dbe83611b67565b925082612dce57612dcd612d79565b5b828204905092915050565b6000612de482611b67565b9150612def83611b67565b925082612dff57612dfe612d79565b5b828206905092915050565b6000612e1582611b67565b9150612e2083611b67565b9250828202612e2e81611b67565b91508282048414831517612e4557612e44612b9c565b5b5092915050565b60006060820190508181036000830152612e668186611bf2565b9050612e756020830185611b71565b612e826040830184611cd8565b949350505050565b600081519050919050565b600082825260208201905092915050565b6000612eb182612e8a565b612ebb8185612e95565b9350612ecb818560208601611bb7565b612ed481611be1565b840191505092915050565b6000608082019050612ef46000830187611cd8565b612f016020830186611cd8565b612f0e6040830185611b71565b8181036060830152612f208184612ea6565b905095945050505050565b600081519050612f3a81611ad8565b92915050565b600060208284031215612f5657612f55611aa2565b5b6000612f6484828501612f2b565b91505092915050565b7f4552433732313a206d696e7420746f20746865207a65726f2061646472657373600082015250565b6000612fa3602083611ba6565b9150612fae82612f6d565b602082019050919050565b60006020820190508181036000830152612fd281612f96565b9050919050565b7f4552433732313a20746f6b656e20616c7265616479206d696e74656400000000600082015250565b600061300f601c83611ba6565b915061301a82612fd9565b602082019050919050565b6000602082019050818103600083015261303e81613002565b905091905056fe416e204e465420772f20494420257320686173206265656e206d696e74656420746f2025734142434445464748494a4b4c4d4e4f505152535455565758595a6162636465666768696a6b6c6d6e6f707172737475767778797a303132333435363738392b2fa26469706673582212202e37aabd5679d92c515c7d941dfd004afd3491f727bb6c7b7f4cd7a642bc2e2564736f6c63430008110033",
  "linkReferences": {},
  "deployedLinkReferences": {}
}